:020000040000FA
:06000000A4EF0FF0120056
:0A00060002007E1F000060000000F1
:10001000700000007C1F00000A01000002000000C8
:10002000D9CFE6FFE1CFD9FF080EE126DE6ADD6A0F
:10003000020EDB6A030EDB6A040EDB6A050EDB6A66
:10004000060EDB6A070EDB6A060EDB6A070EDB6A4A
:10005000060EDBCF14F0070EDBCF15F0FD0EDBCF65
:1000600016F0FE0EDBCF17F01650145C1750155823
:1000700002E3C6EF06F0040EDB6A050EDB6A040E2F
:10008000DBCF14F0050EDBCF15F0145C000E155815
:1000900001E303D1020EDBCF14F0030EDBCF15F02A
:1000A000010E1426000E152214C0DEFF15C0DDFF60
:1000B000DECF14F0DDCF15F0020EDBCF16F0030E0D
:1000C000DBCF17F0090ED8801656000E17561650C3
:1000D000145C175015581BE2020EDBCF14F0030E10
:1000E000DBCF15F0010E1424E66EDFCFE6FFE5EC62
:1000F0000CF0E552E5520A0EE66EE66A86EC08F070
:10010000E552E552DF2A010E01E3DB2AD1D7020EC8
:10011000DBCF14F0030EDBCF15F0020E1426000E19
:10012000152214C0DEFF15C0DDFFDECF14F0DDCFD9
:1001300015F0020EDBCF16F0030EDBCF17F0090E21
:10014000D8801656000E17561650145C17501558C6
:100150001FE2DFCFE6FF020EDBCF14F0030EDBCF92
:1001600015F0080ED8801456000E15561450E66E81
:10017000E5EC0CF0E552E5520A0EE66EE66A86EC16
:1001800008F0E552E552DF2A010E01E3DB2ACDD764
:10019000020EDBCF14F0030EDBCF15F0070ED88074
:1001A0001456000E155614C0DEFF15C0DDFFDECF5D
:1001B00014F0DDCF15F0020EDBCF16F0030EDBCF0F
:1001C00017F01450165C155017581FE2020EDBCFC3
:1001D00014F0030EDBCF15F0080ED8801456000E75
:1001E00015561450E66EDFCFE6FFE5EC0CF0E55255
:1001F000E5520A0EE66EE66A86EC08F0E552E55234
:10020000DF06010E01E2DB06D2D7020EDBCF14F0CF
:10021000030EDBCF15F0070ED8801456000E1556CE
:1002200014C0DEFF15C0DDFFDECF14F0DDCF15F00A
:10023000020EDBCF16F0030EDBCF17F0010E1626F1
:10024000000E17221450165C155017581BE2DFCF12
:10025000E6FF020EDBCF14F0030EDBCF15F0010E2C
:100260001424E66EE5EC0CF0E552E5520A0EE66E5B
:10027000E66A86EC08F0E552E552DF06010E01E27F
:10028000DB06D2D7020EDB2A030E01E3DB2A040EC3
:10029000DB2A050E01E3DB2AF2D6020EDB6A030E2F
:1002A000DB6A040EDB6A050EDB6A040EDBCF14F09A
:1002B000050EDBCF15F0145C000E155801E303D1D9
:1002C000020EDBCF14F0030EDBCF15F0010E142667
:1002D000000E152214C0DEFF15C0DDFFDECF14F0C6
:1002E000DDCF15F0020EDBCF16F0030EDBCF17F0DB
:1002F000090ED8801656000E17561650145C17506B
:1003000015581BE2020EDBCF14F0030EDBCF15F005
:10031000010E1424E66EDFCFE6FF39EC0DF0E55256
:10032000E5520A0EE66EE66A86EC08F0E552E55202
:10033000DF2A010E01E3DB2AD1D7020EDBCF14F056
:10034000030EDBCF15F0020E1426000E152214C08A
:10035000DEFF15C0DDFFDECF14F0DDCF15F0020E9D
:10036000DBCF16F0030EDBCF17F0090ED880165640
:10037000000E17561650145C175015581FE2DFCFA9
:10038000E6FF020EDBCF14F0030EDBCF15F0080EF4
:10039000D8801456000E15561450E66E39EC0DF048
:1003A000E552E5520A0EE66EE66A86EC08F0E55282
:1003B000E552DF2A010E01E3DB2ACDD7020EDBCFA7
:1003C00014F0030EDBCF15F0070ED8801456000E84
:1003D000155614C0DEFF15C0DDFFDECF14F0DDCFF3
:1003E00015F0020EDBCF16F0030EDBCF17F0145022
:1003F000165C155017581FE2020EDBCF14F0030EE7
:10040000DBCF15F0080ED8801456000E1556145088
:10041000E66EDFCFE6FF39EC0DF0E552E5520A0E4D
:10042000E66EE66A86EC08F0E552E552DF06010E5C
:1004300001E2DB06D2D7020EDBCF14F0030EDBCFD6
:1004400015F0070ED8801456000E155614C0DEFFA6
:1004500015C0DDFFDECF14F0DDCF15F0020EDBCFCF
:1004600016F0030EDBCF17F0010E1626000E172232
:100470001450165C155017581BE2DFCFE6FF020E32
:10048000DBCF14F0030EDBCF15F0010E1424E66E63
:1004900039EC0DF0E552E5520A0EE66EE66A86EC9E
:1004A00008F0E552E552DF06010E01E2DB06D2D785
:1004B000020EDB2A030E01E3DB2A040EDB2A050E03
:1004C00001E3DB2AF2D6020EDB6A030EDB6A040EBE
:1004D000DB6A050EDB6A040EDBCF14F0050EDBCF02
:1004E00015F0145C000E155801E303D1020EDBCFAA
:1004F00014F0030EDBCF15F0010E1426000E1522AA
:1005000014C0DEFF15C0DDFFDECF14F0DDCF15F027
:10051000020EDBCF16F0030EDBCF17F0090ED880EA
:100520001656000E17561650145C175015581BE23D
:10053000020EDBCF14F0030EDBCF15F0010E1424F6
:10054000E66EDFCFE6FF0FEC0DF0E552E5520A0E46
:10055000E66EE66A86EC08F0E552E552DF2A010E07
:1005600001E3DB2AD1D7020EDBCF14F0030EDBCF81
:1005700015F0020E1426000E152214C0DEFF15C061
:10058000DDFFDECF14F0DDCF15F0020EDBCF16F06D
:10059000030EDBCF17F0090ED8801656000E175643
:1005A0001650145C175015581FE2DFCFE6FF020EFD
:1005B000DBCF14F0030EDBCF15F0080ED8801456F5
:1005C000000E15561450E66E0FEC0DF0E552E55294
:1005D0000A0EE66EE66A86EC08F0E552E552DF2A7E
:1005E000010E01E3DB2ACDD7020EDBCF14F0030EA0
:1005F000DBCF15F0070ED8801456000E155614C028
:10060000DEFF15C0DDFFDECF14F0DDCF15F0020EEA
:10061000DBCF16F0030EDBCF17F01450165C15502D
:1006200017581FE2020EDBCF14F0030EDBCF15F0DC
:10063000080ED8801456000E15561450E66EDFCF03
:10064000E6FF0FEC0DF0E552E5520A0EE66EE66AA3
:1006500086EC08F0E552E552DF06010E01E2DB060A
:10066000D2D7020EDBCF14F0030EDBCF15F0070E4E
:10067000D8801456000E155614C0DEFF15C0DDFFDD
:10068000DECF14F0DDCF15F0020EDBCF16F0030E37
:10069000DBCF17F0010E1626000E17221450165C41
:1006A000155017581BE2DFCFE6FF020EDBCF14F028
:1006B000030EDBCF15F0010E1424E66E0FEC0DF0E7
:1006C000E552E5520A0EE66EE66A86EC08F0E5525F
:1006D000E552DF06010E01E2DB06D2D7020EDB2A6D
:1006E000030E01E3DB2A040EDB2A050E01E3DB2AFD
:1006F000F2D6020EDB6A030EDB6A040EDB6A050E1D
:10070000DB6A040EDBCF14F0050EDBCF15F0145CB2
:10071000000E155801E303D1020EDBCF14F0030ED7
:10072000DBCF15F0010E1426000E152214C0DEFFDB
:1007300015C0DDFFDECF14F0DDCF15F0020EDBCFEC
:1007400016F0030EDBCF17F0090ED8801656000EF8
:1007500017561650145C175015581BE2020EDBCFCB
:1007600014F0030EDBCF15F0010E1424E66EDFCF7C
:10077000E6FF9FEC0DF0E552E5520A0EE66EE66AE2
:1007800086EC08F0E552E552DF2A010E01E3DB2A90
:10079000D1D7020EDBCF14F0030EDBCF15F0020E23
:1007A0001426000E152214C0DEFF15C0DDFFDECFBB
:1007B00014F0DDCF15F0020EDBCF16F0030EDBCF09
:1007C00017F0090ED8801656000E17561650145CF6
:1007D000175015581FE2DFCFE6FF020EDBCF14F0F3
:1007E000030EDBCF15F0080ED8801456000E1556F8
:1007F0001450E66E9FEC0DF0E552E5520A0EE66EDF
:10080000E66A86EC08F0E552E552DF2A010E01E3C4
:10081000DB2ACDD7020EDBCF14F0030EDBCF15F0B1
:10082000070ED8801456000E155614C0DEFF15C0F2
:10083000DDFFDECF14F0DDCF15F0020EDBCF16F0BA
:10084000030EDBCF17F01450165C155017581FE23B
:10085000020EDBCF14F0030EDBCF15F0080ED880AC
:100860001456000E15561450E66EDFCFE6FF9FECCF
:100870000DF0E552E5520A0EE66EE66A86EC08F0E7
:10088000E552E552DF06010E01E2DB06D2D7020E89
:10089000DBCF14F0030EDBCF15F0070ED880145613
:1008A000000E155614C0DEFF15C0DDFFDECF14F0BC
:1008B000DDCF15F0020EDBCF16F0030EDBCF17F005
:1008C000010E1626000E17221450165C15501758EC
:1008D0001BE2DFCFE6FF020EDBCF14F0030EDBCF0F
:1008E00015F0010E1424E66E9FEC0DF0E552E55272
:1008F0000A0EE66EE66A86EC08F0E552E552DF067F
:10090000010E01E2DB06D2D7020EDB2A030E01E361
:10091000DB2A040EDB2A050E01E3DB2AF2D6020EE7
:10092000DB6A030EDB6A040EDB6A050EDB6A040E6B
:10093000DBCF14F0050EDBCF15F0145C000E15585C
:1009400001E303D1020EDBCF14F0030EDBCF15F071
:10095000010E1426000E152214C0DEFF15C0DDFFA7
:10096000DECF14F0DDCF15F0020EDBCF16F0030E54
:10097000DBCF17F0090ED8801656000E175616500A
:10098000145C175015581BE2020EDBCF14F0030E57
:10099000DBCF15F0010E1424E66EDFCFE6FF05EC89
:1009A0000EF0E552E5520A0EE66EE66A86EC08F0B5
:1009B000E552E552DF2A010E01E3DB2AD1D7020E10
:1009C000DBCF14F0030EDBCF15F0020E1426000E61
:1009D000152214C0DEFF15C0DDFFDECF14F0DDCF21
:1009E00015F0020EDBCF16F0030EDBCF17F0090E69
:1009F000D8801656000E17561650145C175015580E
:100A00001FE2DFCFE6FF020EDBCF14F0030EDBCFD9
:100A100015F0080ED8801456000E15561450E66EC8
:100A200005EC0EF0E552E5520A0EE66EE66A86EC3B
:100A300008F0E552E552DF2A010E01E3DB2ACDD7AB
:100A4000020EDBCF14F0030EDBCF15F0070ED880BB
:100A50001456000E155614C0DEFF15C0DDFFDECFA4
:100A600014F0DDCF15F0020EDBCF16F0030EDBCF56
:100A700017F01450165C155017581FE2020EDBCF0A
:100A800014F0030EDBCF15F0080ED8801456000EBC
:100A900015561450E66EDFCFE6FF05EC0EF0E5527A
:100AA000E5520A0EE66EE66A86EC08F0E552E5527B
:100AB000DF06010E01E2DB06D2D7020EDBCF14F017
:100AC000030EDBCF15F0070ED8801456000E155616
:100AD00014C0DEFF15C0DDFFDECF14F0DDCF15F052
:100AE000020EDBCF16F0030EDBCF17F0010E162639
:100AF000000E17221450165C155017581BE2DFCF5A
:100B0000E6FF020EDBCF14F0030EDBCF15F0010E73
:100B10001424E66E05EC0EF0E552E5520A0EE66E80
:100B2000E66A86EC08F0E552E552DF06010E01E2C6
:100B3000DB06D2D7020EDB2A030E01E3DB2A040E0A
:100B4000DB2A050E01E3DB2AF2D6020EDB6A030E76
:100B5000DB6A040EDB6A050EDB6A040EDBCF14F0E1
:100B6000050EDBCF15F0145C000E155801E303D120
:100B7000020EDBCF14F0030EDBCF15F0010E1426AE
:100B8000000E152214C0DEFF15C0DDFFDECF14F00D
:100B9000DDCF15F0020EDBCF16F0030EDBCF17F022
:100BA000090ED8801656000E17561650145C1750B2
:100BB00015581BE2020EDBCF14F0030EDBCF15F04D
:100BC000010E1424E66EDFCFE6FFD2EC0DF0E55205
:100BD000E5520A0EE66EE66A86EC08F0E552E5524A
:100BE000DF2A010E01E3DB2AD1D7020EDBCF14F09E
:100BF000030EDBCF15F0020E1426000E152214C0D2
:100C0000DEFF15C0DDFFDECF14F0DDCF15F0020EE4
:100C1000DBCF16F0030EDBCF17F0090ED880165687
:100C2000000E17561650145C175015581FE2DFCFF0
:100C3000E6FF020EDBCF14F0030EDBCF15F0080E3B
:100C4000D8801456000E15561450E66ED2EC0DF0F6
:100C5000E552E5520A0EE66EE66A86EC08F0E552C9
:100C6000E552DF2A010E01E3DB2ACDD7020EDBCFEE
:100C700014F0030EDBCF15F0070ED8801456000ECB
:100C8000155614C0DEFF15C0DDFFDECF14F0DDCF3A
:100C900015F0020EDBCF16F0030EDBCF17F0145069
:100CA000165C155017581FE2020EDBCF14F0030E2E
:100CB000DBCF15F0080ED8801456000E15561450D0
:100CC000E66EDFCFE6FFD2EC0DF0E552E5520A0EFC
:100CD000E66EE66A86EC08F0E552E552DF06010EA4
:100CE00001E2DB06D2D7020EDBCF14F0030EDBCF1E
:100CF00015F0070ED8801456000E155614C0DEFFEE
:100D000015C0DDFFDECF14F0DDCF15F0020EDBCF16
:100D100016F0030EDBCF17F0010E1626000E172279
:100D20001450165C155017581BE2DFCFE6FF020E79
:100D3000DBCF14F0030EDBCF15F0010E1424E66EAA
:100D4000D2EC0DF0E552E5520A0EE66EE66A86EC4C
:100D500008F0E552E552DF06010E01E2DB06D2D7CC
:100D6000020EDB2A030E01E3DB2A040EDB2A050E4A
:100D700001E3DB2AF2D6020EDB6A030EDB6A060E03
:100D8000DB2A070E01E3DB2A28EF00F0080EE15C06
:100D900002E2E16AE552E16EE552E7CFD9FF1200C7
:100DA000D9CFE6FFE1CFD9FF160EE126DE6ADD6A74
:100DB000120EDB6A130EDB6A140EDB6A010EF36E91
:100DC000150EF3CFDBFF38EC0EF0010EDE6EDD6AA0
:100DD000DECF14F0DDCF15F0090E145C000E1558AF
:100DE00030E2DFCFE6FF070EE66E9FEC0DF0E55236
:100DF000E552DFCFE6FF080EE66E9FEC0DF0E55200
:100E0000E552D950020F146EDACF15F0DECF16F08E
:100E1000DDCF17F01606000E175A010ED8901636C1
:100E20001736E806FBE114501624E96E155017201A
:100E3000EA6E060EEE6EED6ADF2A010E01E3DB2A92
:100E4000C7D7150EDBCFE6FF010EE66EE5EC0CF022
:100E5000E552E552010EE66EE66A86EC08F0E552D0
:100E6000E55242EC0BF0E76E130EE7CFDBFFDB50F1
:100E700001E1ECD042EC0BF0000908E0010EE66E57
:100E8000E66A86EC08F0E552E552F4D7010EE66E0C
:100E9000E66A86EC08F0E552E552130EDB506C0A68
:100EA00019E0190A01E0D2D0150EDBCFE6FF010EE2
:100EB000E66E75EC0EF0E552E552150EDB500808B3
:100EC00006E1010EF36E150EF3CFDBFF02D0150E17
:100ED000DB2ABCD0120EDB5048E0020EDE6EDD6A6B
:100EE000DECF14F0DDCF15F0D950020F186EDACF37
:100EF00019F0150EDB04020D1850F324E96E195099
:100F0000F420EA6EEECF16F0EFCF17F0010E1626A2
:100F1000000E17221650145C1750155825E2150EB6
:100F2000DBCFE6FFDFCFE6FFD2EC0DF0E552E55276
:100F3000150EDBCFE6FFDECF14F0DDCF15F0140683
:100F4000000E155A1450E66E75EC0EF0E552E5529F
:100F5000090EE66EE66A86EC08F0E552E552DF2AF5
:100F6000010E01E3DB2ABCD747D0020EDE6EDD6A3C
:100F7000DECF14F0DDCF15F0D950020F186EDACFA6
:100F800019F0150EDB04020D1850F324E96E195008
:100F9000F420EA6EEECF16F0EFCF17F0010E162612
:100FA000000E17221650145C1750155825E2150E26
:100FB000DBCFE6FFDFCFE6FFE5EC0CF0E552E552D4
:100FC000150EDBCFE6FFDECF14F0DDCF15F01406F3
:100FD000000E155A1450E66E75EC0EF0E552E5520F
:100FE000090EE66EE66A86EC08F0E552E552DF2A65
:100FF000010E01E3DB2ABCD7D950020F146EDACF01
:1010000015F0150EDB04020D1450F324E96E155093
:10101000F420EA6E010ED880EE54000EED5415E275
:10102000D950020F146EDACF15F0150EDB04020D45
:101030001450F324E96E1550F420EA6EEE06000E0B
:10104000EF5A120EDB70140EDB2A00D0120EDB50AA
:1010500009E1150EDBCFE6FF010EE66EE5EC0CF0C4
:10106000E552E552120EDB5009E0150EDBCFE6FF2C
:10107000010EE66ED2EC0DF0E552E552140EDB5097
:10108000280804E1160EE15C04E201D0E3D6E16A2F
:0C109000E552E16EE552E7CFD9FF1200F7
:04109C00D9CFE6FFC3
:1010A000E1CFD9FF8084FE0EDB50816E8094816A8F
:1010B000E552E7CFD9FF1200D9CFE6FFE1CFD9FF44
:1010C0008082FE0EDB50816E8092816AE552E7CF0E
:1010D000D9FF1200D9CFE6FFE1CFD9FF8086FE0EFF
:1010E000DB50816E8096816AE552E7CFD9FF12000E
:1010F000D9CFE6FFE1CFD9FF8088FE0EDB50816EAD
:101100008098816AE552E7CFD9FF1200D9CFE6FF78
:10111000E1CFD9FF060EE126010EF36E040EF3CFE8
:10112000DBFF050EDB6ADE6ADD6ADECF14F0DDCFA1
:1011300015F0FD0EDBCF16F0FE0EDBCF17F01650CC
:10114000145C1750155801E377D0020EDB6A030ECA
:10115000DB6A020EDBCF14F0030EDBCF15F0080EB6
:10116000145C000E15585CE2040EDBCFE6FFC0DF16
:10117000E552020EDBCFE9FF030EDBCFEAFFD00E14
:10118000E926000EEA22EF50E66E96DFE552020EE7
:10119000DBCFE9FF030EDBCFEAFFD80EE926000E16
:1011A000EA22EF50E66E7ADFE552020EDBCFE9FF6E
:1011B000030EDBCFEAFFE00EE926000EEA22EF5035
:1011C000E66E88DFE5528090E80EE66EB2EC0FF036
:1011D000E5528080040EDBCFE6FF8ADFE552E66849
:1011E0006BDFE552E6685ADFE552E66873DFE552E9
:1011F0008090320EE66EB2EC0FF0E5528080D9504E
:10120000040FE96EDACFEAFF010ED890EE36ED3624
:10121000E806FBE1020EDB2A030E01E3DB2A99D785
:10122000010EF36E040EF3CFDBFF050EDB6ADF2A3F
:10123000010E01E3DB2A79D7060EE15C02E2E16AE6
:10124000E552E16EE552E7CFD9FF1200D9CFE6FFB4
:10125000E1CFD9FF020EE126926A936A94688080FA
:10126000D38CD38AD388D390D392D388D38AD38C88
:10127000DE6ADD6ADECF14F0DDCF15F0080E145CF7
:10128000000E15583BE2DECFE9FFDDCFEAFFD00EBE
:10129000E926000EEA22EF68DECFE9FFDDCFEAFFA4
:1012A000D80EE926000EEA22EF68DECFE9FFDDCF97
:1012B000EAFFE00EE926000EEA22EF68DECFE9FF42
:1012C000DDCFEAFFE80EE926000EEA22EF68DECF66
:1012D000E9FFDDCFEAFFF00EE926000EEA22EF6813
:1012E000DECFE9FFDDCFEAFFF80EE926000EEA22A5
:1012F000EF68DF2A010E01E3DB2ABCD7020EE15CB6
:1013000002E2E16AE552E16EE552E7CFD9FF120051
:10131000D9CFE6FFE1CFD9FF020EE126DE6ADD6A12
:10132000DECF14F0DDCF15F0080E145C000E15585A
:1013300044E2DECFE9FFDDCFEAFFD00EE926000E62
:10134000EA22EF50E66EDECFE9FFDDCFEAFFE80EDE
:10135000E926000EEA22E552E750EF6EDECFE9FF04
:10136000DDCFEAFFD80EE926000EEA22EF50E66E46
:10137000DECFE9FFDDCFEAFFF00EE926000EEA221C
:10138000E552E750EF6EDECFE9FFDDCFEAFFE00E7A
:10139000E926000EEA22EF50E66EDECFE9FFDDCF50
:1013A000EAFFF80EE926000EEA22E552E750EF6E5A
:1013B000DF2A010E01E3DB2AB3D7DE6ADD6ADECF66
:1013C00014F0DDCF15F0070E145C000E155850E236
:1013D000DECFE9FFDDCFEAFF010EE926000EEA22AB
:1013E000E80EE926000EEA22EF50E66EDECFE9FFB6
:1013F000DDCFEAFFD00EE926000EEA22E552E750E3
:10140000EF6EDECFE9FFDDCFEAFF010EE926000E29
:10141000EA22F00EE926000EEA22EF50E66EDECF59
:10142000E9FFDDCFEAFFD80EE926000EEA22E552F9
:10143000E750EF6EDECFE9FFDDCFEAFF010EE926D0
:10144000000EEA22F80EE926000EEA22EF50E66EC0
:10145000DECFE9FFDDCFEAFFE00EE926000EEA224B
:10146000E552E750EF6EDF2A010E01E3DB2AA7D732
:10147000600E0001CE25E96E000ECF21EA6EEFCF9F
:10148000D7F0840ECE25E96E000ECF21EA6EEFCFA5
:10149000DFF0A80ECE25E96E000ECF21EA6EEFCF69
:1014A000E7F0200ECE1901E1CF5103E1CE6BCF6BF7
:1014B00003D0CE2B000ECF23020EE15C02E2E16AE4
:1014C000E552E16EE552E7CFD9FF1200D9CFE6FF32
:1014D000E1CFD9FF020EE126DE6ADD6ADECF14F02D
:1014E000DDCF15F0080E145C000E155844E2DECF77
:1014F000E9FFDDCFEAFFD00EE926000EEA22EF5029
:10150000E66EDECFE9FFDDCFEAFFE80EE926000E4A
:10151000EA22E552E750EF6EDECFE9FFDDCFEAFFCA
:10152000D80EE926000EEA22EF50E66EDECFE9FF84
:10153000DDCFEAFFF00EE926000EEA22E552E75081
:10154000EF6EDECFE9FFDDCFEAFFE00EE926000E09
:10155000EA22EF50E66EDECFE9FFDDCFEAFFF80EBC
:10156000E926000EEA22E552E750EF6EDF2A010E6F
:1015700001E3DB2AB3D7070EDE6EDD6AD9CFE9FFC0
:10158000DACFEAFF000ED880EE54000EED544DE2A3
:10159000DECFE9FFDDCFEAFFE906000EEA5AE80EEA
:1015A000E926000EEA22EF50E66EDECFE9FFDDCF3E
:1015B000EAFFD00EE926000EEA22E552E750EF6E70
:1015C000DECFE9FFDDCFEAFFE906000EEA5AF00EB2
:1015D000E926000EEA22EF50E66EDECFE9FFDDCF0E
:1015E000EAFFD80EE926000EEA22E552E750EF6E38
:1015F000DECFE9FFDDCFEAFFE906000EEA5AF80E7A
:10160000E926000EEA22EF50E66EDECFE9FFDDCFDD
:10161000EAFFE00EE926000EEA22E552E750EF6EFF
:10162000DF06010E01E2DB06A9D7600E0001CE2520
:10163000E96E000ECF21EA6EEFCFD0F0840ECE25FA
:10164000E96E000ECF21EA6EEFCFD8F0A80ECE25BE
:10165000E96E000ECF21EA6EEFCFE0F0CE51CF1150
:1016600004E1200ECE6FCF6B03D0CE07000ECF5B10
:10167000020EE15C02E2E16AE552E16EE552E7CF7B
:10168000D9FF1200D9CFE6FFE1CFD9FFE652DF6ADA
:1016900082A003D0750EDF6E22D082A403D0640E28
:1016A000DF6E1DD082A203D06C0EDF6E18D082A830
:1016B00003D0720EDF6E13D082A003D0610EDF6EF6
:1016C0000ED082A003D0620EDF6E09D082A003D0BC
:1016D000780EDF6E04D082A002D0790EDF6EDF506C
:1016E00006E0010EE66EE66A11DDE552E552DF50D6
:1016F00000D0E552E552E7CFD9FF1200D9CFE6FF7F
:10170000E1CFD9FF020EE126DE6ADD6A0001CD518C
:1017100036E0DE6ADD6ADECF14F0DDCF15F0070EAD
:10172000145C000E155823E2DECFE9FFDDCFEAFF9F
:10173000D00EE926000EEA220F0EEF6EDECFE9FF93
:10174000DDCFEAFFD80EE926000EEA220F0EEF6E7B
:10175000DECFE9FFDDCFEAFFE00EE926000EEA2248
:101760000F0EEF6EDF2A010E01E3DB2AD4D7010E44
:10177000E66EE66ACBDCE552E552F9D701D000D03F
:10178000020EE15C02E2E16AE552E16EE552E7CF6A
:10179000D9FF1200D9CFE6FFE1CFD9FF080EE1262D
:1017A000DE6ADE6ADE6ADD6ADD52DD52040EDB6A65
:1017B000050EDB6A060EDB6A070EDB6A67EC0FF0CC
:1017C000F3CF14F0F4CF15F0800E0D6E0E6A14C036
:1017D00008F015C009F0F6EC0EF008C014F009C0CE
:1017E00015F0166A176A15AE02D01668176814C08D
:1017F000DFFF010E15C0DBFF020E16C0DBFF030E7C
:1018000017C0DBFFD9CFE9FFDACFEAFF000EEE5CAD
:10181000000EEE58000EEE58000EEE581AE3D9CF27
:10182000E9FFDACFEAFFD880320EEE54000EEE5414
:10183000000EEE54000EEE540CE37E0EF36E040E1A
:10184000F3CFDBFF050EDB6A060EDB6A070EDB6AF1
:1018500091D0D9CFE9FFDACFEAFFD880320EEE542B
:10186000000EEE54000EEE54000EEE541AE2D9CFE4
:10187000E9FFDACFEAFFD880640EEE54000EEE5492
:10188000000EEE54000EEE540CE3660EF36E040EE2
:10189000F3CFDBFF050EDB6A060EDB6A070EDB6AA1
:1018A00069D0D9CFE9FFDACFEAFFD880640EEE54D1
:1018B000000EEE54000EEE54000EEE541AE2D9CF94
:1018C000E9FFDACFEAFFD880960EEE54000EEE5410
:1018D000000EEE54000EEE540CE3720EF36E040E86
:1018E000F3CFDBFF050EDB6A060EDB6A070EDB6A51
:1018F00041D0D9CFE9FFDACFEAFFD880960EEE5477
:10190000000EEE54000EEE54000EEE541AE2D9CF43
:10191000E9FFDACFEAFFD880C80EEE54000EEE548D
:10192000000EEE54000EEE540CE3620EF36E040E45
:10193000F3CFDBFF050EDB6A060EDB6A070EDB6A00
:1019400019D0D9CFE9FFDACFEAFFD880C80EEE541C
:10195000000EEE54000EEE54000EEE540BE21C0E80
:10196000F36E040EF3CFDBFF050EDB6A060EDB6AB7
:10197000070EDB6AD9CFE9FFDACFEAFF040EEECF1C
:10198000DBFF050EEECFDBFF060EEECFDBFF070E13
:10199000EECFDBFF840E0001CE25E96E000ECF21D5
:1019A000EA6E040EDBCFEFFFDB6A050EDB6A060E84
:1019B000DB6A070EDB6A080EE15C02E2E16AE552CF
:1019C000E16EE552E7CFD9FF1200D9CFE6FFE1CFB4
:1019D000D9FFE652010EDF6EFD0EDBCFE6FFFE0EF5
:1019E000DBCFE6FF82D9E552E552FD0EDB04146E33
:1019F000DF50145204E0E846FE0B1406FCE1DF6EF3
:101A0000DF1EFE0EDB04EA6AD00FE96E000EEA224A
:101A1000DF50EF16E552E552E7CFD9FF1200D9CFDC
:101A2000E6FFE1CFD9FFE652010EDF6EFD0EDBCF00
:101A3000E6FFFE0EDBCFE6FF58D9E552E552FD0E7C
:101A4000DB04146EDF50145204E0E846FE0B14066B
:101A5000FCE1DF6EDF1EFE0EDB04EA6AE00FE96EDA
:101A6000000EEA22DF50EF16E552E552E7CFD9FF2C
:101A70001200D9CFE6FFE1CFD9FFE652010EDF6EAB
:101A8000FD0EDBCFE6FFFE0EDBCFE6FF2ED9E552E3
:101A9000E552FD0EDB04146EDF50145204E0E846FC
:101AA000FE0B1406FCE1DF6EDF1EFE0EDB04EA6AAD
:101AB000D80FE96E000EEA22DF50EF16E552E5522C
:101AC000E7CFD9FF1200D9CFE6FFE1CFD9FFE65229
:101AD000010EDF6EFD0EDBCFE6FFFE0EDBCFE6FF75
:101AE00004D9E552E552FD0EDB04146EDF501452AA
:101AF00004E0E846FE0B1406FCE1DF6EDF1EFE0E7E
:101B0000DB04EA6AD00FE96E000EEA22DF50EF161E
:101B1000FE0EDB04EA6AD80FE96E000EEA22DF50FF
:101B2000EF16FE0EDB04EA6AE00FE96E000EEA2211
:101B3000DF50EF16E552E552E7CFD9FF1200D9CFBB
:101B4000E6FFE1CFD9FFE652010EDF6EFD0EDBCFDF
:101B5000E6FFFE0EDBCFE6FFC8D8E552E552FD0EEC
:101B6000DB04146EDF50145204E0E846FE0B14064A
:101B7000FCE1DF6EDF1EFE0EDB04EA6AD00FE96EC9
:101B8000000EEA22DF50EF16FE0EDB04EA6AE00FD9
:101B9000E96E000EEA22DF50EF16E552E552E7CF7C
:101BA000D9FF1200D9CFE6FFE1CFD9FFE652010EEF
:101BB000DF6EFD0EDBCFE6FFFE0EDBCFE6FF95D836
:101BC000E552E552FD0EDB04146EDF50145204E0C2
:101BD000E846FE0B1406FCE1DF6EDF1EFE0EDB04A2
:101BE000EA6AD00FE96E000EEA22DF50EF16FE0E11
:101BF000DB04EA6AD80FE96E000EEA22DF50EF1626
:101C0000E552E552E7CFD9FF1200D9CFE6FFE1CF89
:101C1000D9FFE652010EDF6EFD0EDBCFE6FFFE0EB2
:101C2000DBCFE6FF62D8E552E552FD0EDB04146E11
:101C3000DF50145204E0E846FE0B1406FCE1DF6EB0
:101C4000DF1EFE0EDB04EA6AD80FE96E000EEA2200
:101C5000DF50EF16FE0EDB04EA6AE00FE96E000EBD
:101C6000EA22DF50EF16E552E552E7CFD9FF120026
:101C7000D9CFE6FFE1CFD9FF020EE126DE6ADD6AA9
:101C8000DE6ADD6ADECF14F0DDCF15F0080E145CDD
:101C9000000E155820E2DECFE9FFDDCFEAFFD00EBF
:101CA000E926000EEA22EF68DECFE9FFDDCFEAFF8A
:101CB000D80EE926000EEA22EF68DECFE9FFDDCF7D
:101CC000EAFFE00EE926000EEA22EF68DF2A010EA5
:101CD00001E3DB2AD7D7020EE15C02E2E16AE552BA
:101CE000E16EE552E7CFD9FF1200D9CFE6FFE1CF91
:101CF000D9FFE652010EDF6EFD0EDB04146EDF50DD
:101D0000145204E0E846FE0B1406FCE1DF6EFE0E02
:101D1000DB04EA6AD00FE96E000EEA22DF50EF1210
:101D2000FE0EDB04EA6AD80FE96E000EEA22DF50ED
:101D3000EF12FE0EDB04EA6AE00FE96E000EEA2203
:0E1D4000DF50EF12E552E552E7CFD9FF120057
:021D4E00060E7F
:101D5000F66E000EF76E000EF86E01010900F550E8
:101D6000056F0900F550066F03E1056701D03DD00E
:101D70000900F550006F0900F550016F0900F5509A
:101D8000026F09000900F550E96E0900F550EA6E8E
:101D9000090009000900F550036F0900F550046FB0
:101DA00009000900F6CF07F1F7CF08F1F8CF09F1E4
:101DB00000C1F6FF01C1F7FF02C1F8FF01010353A3
:101DC00002E1045307E00900F550EE6E0307F8E264
:101DD0000407F9D707C1F6FF08C1F7FF09C1F8FFEB
:0C1DE00001010507000E065BBFD71200D2
:041DEC00006A0EAECD
:101DF000FFEF0EF00D6C0E1EE86A0E22001E09AEFB
:101E000007EF0FF0086C091EE86A0922001E7EEC3D
:101E10000FF009BE17EF0FF000AE000C086C091EA2
:101E2000E86A0922046C051EE86A0522000C00BE5F
:101E30000EEF0FF00188FF0C08C012F008500D02E1
:101E4000F4CF07F0F3CF06F009500E02F4CF09F0FB
:101E5000F3CF08F00D02F3500726F4500822E86A89
:101E6000092212500E02F3500726F4500822E86AA5
:041E70000922000C37
:0C1E7400D9CFE6FFE1CFD9FF060EE12632
:101E8000DE6ADD6A020EDB6A030EDB6A040EDB6AC1
:101E9000050EDB6A26EC09F0D0EC06F0010EE66ECA
:101EA000E66A10EC00F0E552E552FFD7060EE15C61
:101EB00002E2E16AE552E16EE552E7CFD9FF120096
:101EC000FE0EE3CF0AF1FF0EE3CF0BF112000BC1C0
:101ED00009F00AC108F0350E0D6E450E0E6E1CECB1
:101EE0000FF0062AE86A0722079E07C00BF106C01A
:0C1EF0000AF10AC1F3FF0BC1F4FF12005D
:041EFC00056A046A05
:101F0000100EE76ED89008360936043605360D50A7
:101F1000045C0E50055805E30D50045E0E50055A42
:081F2000082AE72EF0D7120099
:081F2800000EF36E00EE00F064
:101F3000080E01D81200EA6002D0EE6AFCD7F35016
:081F4000E9601200EE6AFCD713
:081F480013EE00F023EE00F09F
:101F5000F86A019CA7EC0EF0BDEC0FF03AEC0FF024
:041F6000FBD7120099
:0C1F6400FF0EE350E84E1200000000D019
:0A1F700000D000D0E82EFAD71200CE
:021F7A00120053
:021F7C00010062
:021F7E0000FF62
:101F8000FF0000FF00FFFF00FFFF00FFFF00FFFF5B
:101F900000FFFF00FFFF00FFFF00FFFF00FFFF004B
:101FA000FFFFFF00FF00FF0000FFFFFF00FFFF003B
:101FB000FFFF00FFFF00FFFF00FFFF00FFFF00FF2C
:101FC000FF00FFFF00FFFFFF00FF000000FF00FF1A
:101FD000FF00FFFF00FFFF00FFFF00FFFF00FFFF0C
:0E1FE00000FFFF00FFFF00FFFF0010000800E1
:020000040030CA
:0100010008F6
:010002001EDF
:010003001EDE
:0100050001F9
:010006008178
:010008000FE8
:01000900C036
:00000001FF
